:1000000064002500030A6400730074007500760024
:10001000770078006400470B2B0B190B120BA00B19
:10022400080C060066000F0C020004000008320CE3
:10023400980003061E0B1F0B210B0605220B060458
:10024400010CF80198024307280B290B2A0B7800AC
:100254000008000C6606010C2800000000000000E5
:100264000000000C6606010C29006A00080243061F
:100274003C0B3D0B440B09024306410B420B440B60
:10028400010C2A000A022700000871000E097200FE
:10029400190C2700000C280012023C007D001C02EF
:1002A40029001D022A000F090702080143075B0BFE
:1002B4005C0B5E0B010CA6016E0004000000010C37
:1002C400EE018E024307670B680B5F0B010CF20112
:1002D400C80C920003076F0B700B4A0B04000C0947
:1002E40007022D000D024307780B790B8A0B91024C
:1002F40043067D0B7E0B800B010CF101C80C9100B1
:100304000307850B860B8B0B060526050400880B5B
:1003140071000D096F0070000000010CF001040C65
:1003240090000307960B970B8E0B010CEF018F02C5
:1003340043079D0B9E0B8D0B700B020A6C00EA07A2
:10034400A40BA50BAC0B69026A02A9024306AA021C
:10035400010C2C00E807AF0BB00BB50B6702680269
:10036400A7024306A802070208014306BA0BBB0B07
:10037400F00B010C2B00C70B010C3C0003046703BA
:100384006803FC02C00B010CEB01E807CA0BCB0BA2
:10039400BE0B08023D0007023C001D028A00430711
:1003A400D50B1C0289000307D80BD90BE30B0802F9
:1003B4003D0007023C001C02A9001D020307EA00DD
:1003C400AA00010C3C00030428032703FC02E50BEC
:1003D400010CAB004307EF0BF00BCB0B0C024306F5
:1003E400F40BF50BFA0B69026A02A9024306AA028E
:0A03F4000A02280009022700000891
:021FFE00EE0FE4
:00000001FF
