:10000000010A640021093A00070C2400140C0A09B3
:100010006400CA0A04006000A40284011F0E4306A3
:10002000000884010B0A040BD00AF40A2B0BC60A41
:10003000DA0AC40AC20AE50A150BBF0B460B8C0B81
:04004000670B010841
:10018400260500080605000819091A0918090008B7
:100194001509130916091809CB0A000A010C3C00B9
:1001A4007D001C02E9010306AA021D02EA010008FF
:1001B4000400010CF001C90C90000307E20AE30AF1
:1001C400E40A700000081C09070C8A00D00C4306DE
:1001D40089000307EE0AEF0AF30A010C33006700F3
:1001E400680000080400080C0600060426046900E0
:1001F4006A006700680070006F006E006D00730095
:1002040004000008C70C3400070BF402060B0A0BA9
:100214000B0B010CEB010B024306110B120B140B1D
:1002240014096B000008FA0C3400000C35000A02B3
:100234003700090236001D09000C95007D0C4306A9
:1002440094000306260B270B290B06052A0B06042C
:100254000008320B1B09450B1E09450B1709450BFA
:1002640013023C007D001D02000F43063A0B450BB0
:100274001C02000F43062C0B010F43062E0B030F29
:100284004306300B450B000820091F0914023900EE
:10029400190243074E0B4F0B640B010C3C007D000D
:1002A4001C02E7010306A8021D02E801070C8800EE
:1002B400D00C430687000307600B610B660B020C2E
:1002C4003300660B6700680000081002070E43073E
:1002D4006C0B6D0B7F0B1A02EC010F0C8C000307E7
:1002E400740B750B780BFF0C3A007F0B0C02430761
:1002F4007C0B7D0B7F0B010C3A000F0C500134007A
:100304000C0294000306870B880B8A0B06058B0BE3
:1003140006040008000C6606010C3600030C3500C8
:10032400F502920B000C6606010C3700030C350035
:10033400F5029A0B000C6606010C38001602D70170
:100344003C007D007D031802DC013E00000C030626
:10035400010CDD013F001F02800F3C00800C9C005B
:100364004307B60B020C9E000307B90BBA0BBD0B77
:10037400010C3400BE0B740000081402150143067E
:10038400C40BC50BFA0B010C3800D10B010C3C005B
:10039400030474037503FC02CA0B010CF801F5078E
:1003A400D40BD50BC80B15023D0014023C001D02F2
:1003B40097004307DF0B1C0296000307E20BE30BD5
:1003C400ED0B15023D0014023C001C02B6001D0298
:1003D4000307F700B700010C3C00030435033403A2
:1003E400FC02EF0B010CB8004307F90BFA0BD50B19
:0A03F400170235001602340000085D
:021FFE00EE0FE4
:00000001FF
